:020000040800F2
:10000000600600206D0100087501000877010008F6
:10001000790100087B0100087D0100080000000054
:100020000000000000000000000000007F01000848
:10003000810100080000000083010008850100081C
:100040008701000887010008870100088701000870
:100050008701000887010008870100088701000860
:100060008701000887010008870100088701000850
:100070008701000887010008870100088701000840
:100080008701000887010008870100088701000830
:100090008701000887010008870100088701000820
:1000A0008701000887010008870100088701000810
:1000B0008701000887010008870100088701000800
:1000C00087010008870100088701000887010008F0
:1000D00087010008870100088701000887010008E0
:1000E00087010008870100088701000800F002F876
:1000F00000F02CF80AA090E8000C82448344AAF196
:100100000107DA4501D100F021F8AFF2090EBAE893
:100110000F0013F0010F18BFFB1A43F0010318473B
:10012000F40400000405000000230024002500263C
:10013000103A28BF78C1FBD8520728BF30C148BF4A
:100140000B6070471FB51FBD10B510BD00F031F832
:100150001146FFF7F7FF00F01DFA00F04FF803B467
:10016000FFF7F2FF03BC00F057F800000948804792
:1001700009480047FEE7FEE7FEE7FEE7FEE7FEE789
:10018000FEE7FEE7FEE7FEE704480549054A064BA1
:1001900070470000F1020008ED0000086000002038
:1001A0006006002060020020600200207047704757
:1001B0007047754600F02CF8AE4605006946534678
:1001C00020F00700854618B020B5FFF7DDFFBDE839
:1001D00020404FF000064FF000074FF000084FF0AE
:1001E000000BAC46ACE8C009ACE8C009ACE8C009FB
:1001F000ACE8C00921F007018D46704710B50446F0
:10020000AFF300802046BDE81040FFF7A8BF000014
:10021000004870470000002001491820ABBEFEE7EF
:10022000260002007047000080B500F001F880BD94
:1002300082B041F204000021C4F202000191009159
:1002400050F8041C41F4803140F8041C50F8041CA0
:1002500001F400310091019901310191009919B91E
:100260000199B1F5A06FF1D150F8041C890354BF76
:100270000021012100910099012936D142F20001AB
:10028000C4F202010A6842F010020A600A6822F011
:1002900003020A600A6842F002020A600168016013
:1002A00001680160016841F480610160016821F426
:1002B0007C110160016841F4E811016050F8041CF0
:1002C00041F0807140F8041C50F8041C8901FBD5F2
:1002D000016821F003010160016841F00201016041
:1002E000016801F00C010829FAD102B07047000042
:1002F00080B541F20000C4F202000168002241F022
:10030000010101604168CFF6FF02114041600168C0
:100310004FF6FF72CFF6F66211400160016821F4DA
:1003200080210160416821F4FE0141604FF41F010A
:100330008160FFF779FF4EF60850CEF200004FF0D3
:100340000061016080BD0000082918D3032A61D82C
:10035000DFE802F00261778040F2D452C0F600027A
:1003600052F8211001238A1C033103FA02F203FA26
:1003700001F1436861EA0201194041607047032AB4
:1003800088BF7047DFE802F002152B3940F2D452E3
:10039000C0F6000252F8211001238A1C033103FA2F
:1003A00002F203FA01F1036861EA020119400160F7
:1003B000704740F2D452C0F6000252F821104FF0BC
:1003C000010CCA1C03680CFA02F223EA0202026062
:1003D000023102680CFA01F111430160704740F2EA
:1003E000D452C0F6000252F82110022202310368F2
:1003F00002FA01F119430160704740F2D452C0F68D
:10040000000252F8211003220231036802FA01F1BE
:1004100019430160704740F2D452C0F6000252F80E
:1004200021104FF0010CCA1C43680CFA02F223EAB7
:1004300002024260023142680CFA01F1114341604C
:10044000704740F2D452C0F6000252F82110022246
:10045000023107E040F2D452C0F6000252F82110F7
:1004600003220231436802FA01F1194341607047E7
:10047000082913D340F2D45CC0F6000C5CF82110BC
:10048000012A1FD1012202FA01F3013102FA01F11E
:100490004268194322EA010141607047012A17D1DD
:1004A00040F2D452C0F6000252F82110012202FAA2
:1004B00001F3013102FA01F10268194322EA010154
:1004C00001607047426803FA01F1114341607047CF
:1004D000026803FA01F111430160704770B50546E7
:1004E000A0F18040A0F584301A46059C4FEAB02365
:1004F000032B0E463BD841F21800C4F20200DFE89D
:1005000003F002182832016841F20043C4F20103EB
:1005100041F004019D42016025D041F20001C4F286
:1005200001018D4215D040F60041C4F201018D4217
:100530001DD1016841F20043C4F2010341F00801FA
:100540009D4201600FD041F20001C4F201018D42D1
:100550000DD1016841F20043C4F2010341F01001E2
:100560009D42016003D1016841F0200101602846ED
:100570003146FFF7E9FE2846314622462346FFF77B
:1005800077FF70BD0122C36802FA01F15940C160D2
:100590007047000084B041F200040320C4F201045B
:1005A00044F64035019020460D2102220023C0F27E
:1005B0004C050026FFF792FF20460D21FFF7E2FFD2
:1005C000039600BF0398A842F6DA0398013003901F
:1005D000F8E7000000000000040000000800000030
:1005E0000C000000100000001400000018000000C3
:1005F0001C000000000000000400000008000000D3
:100600000C000000100000001400000018000000A2
:100610001C00000024060008000000206006000006
:0406200028010008A5
:040000050800016D81
:00000001FF
